{
  "_format": "hh-sol-artifact-1",
  "contractName": "FHERegisTestnet",
  "sourceName": "contracts/FHERegisTestnet.sol",
  "abi": [
    {
      "inputs": [
        {
          "internalType": "address",
          "name": "user",
          "type": "address"
        }
      ],
      "name": "encryptedEmailOf",
      "outputs": [
        {
          "internalType": "euint256",
          "name": "",
          "type": "bytes32"
        }
      ],
      "stateMutability": "view",
      "type": "function"
    },
    {
      "inputs": [],
      "name": "getTotalRegistered",
      "outputs": [
        {
          "internalType": "uint256",
          "name": "",
          "type": "uint256"
        }
      ],
      "stateMutability": "view",
      "type": "function"
    },
    {
      "inputs": [
        {
          "internalType": "address",
          "name": "user",
          "type": "address"
        }
      ],
      "name": "hasRegistered",
      "outputs": [
        {
          "internalType": "bool",
          "name": "",
          "type": "bool"
        }
      ],
      "stateMutability": "view",
      "type": "function"
    },
    {
      "inputs": [],
      "name": "protocolId",
      "outputs": [
        {
          "internalType": "uint256",
          "name": "",
          "type": "uint256"
        }
      ],
      "stateMutability": "pure",
      "type": "function"
    },
    {
      "inputs": [
        {
          "internalType": "externalEuint256",
          "name": "encryptedEmail",
          "type": "bytes32"
        },
        {
          "internalType": "bytes",
          "name": "zkProof",
          "type": "bytes"
        }
      ],
      "name": "registerEmail",
      "outputs": [],
      "stateMutability": "nonpayable",
      "type": "function"
    },
    {
      "inputs": [],
      "name": "totalRegistered",
      "outputs": [
        {
          "internalType": "uint256",
          "name": "",
          "type": "uint256"
        }
      ],
      "stateMutability": "view",
      "type": "function"
    }
  ],
  "bytecode": "0x608060405234801561000f575f5ffd5b5061018a6100ae604080516080810182525f80825260208201819052918101829052606081019190915250604080516080810182527350157cffd6bbfa2dece204a89ec419c23ef5755d815273cd3ab3bd6bcc0c0bf3e27912a92043e817b1cf69602082015273a02cda4ca3a71d7c46997716f4283aa851c2881291810191909152731364cbbf2cdf5032c47d8226a6f6fbd2afcdacac606082015290565b80517f9e7b61f58c47dc699ac88507c4f5bb9f121c03808c5676a8078fe583e464970080546001600160a01b03199081166001600160a01b039384161790915560208301517f9e7b61f58c47dc699ac88507c4f5bb9f121c03808c5676a8078fe583e46497018054831691841691909117905560408301517f9e7b61f58c47dc699ac88507c4f5bb9f121c03808c5676a8078fe583e46497028054831691841691909117905560608301517f9e7b61f58c47dc699ac88507c4f5bb9f121c03808c5676a8078fe583e46497038054909216921691909117905550565b610511806101975f395ff3fe608060405234801561000f575f5ffd5b506004361061006f575f3560e01c8063a0d035261161004d578063a0d03526146100bb578063c05e2be3146100f6578063da1f12ab1461010b575f5ffd5b80634b2b363c1461007357806378e324a01461008a578063927416c0146100b2575b5f5ffd5b6002545b6040519081526020015b60405180910390f35b6100776100983660046103bb565b6001600160a01b03165f9081526020819052604090205490565b61007760025481565b6100e66100c93660046103bb565b6001600160a01b03165f9081526001602052604090205460ff1690565b6040519015158152602001610081565b6101096101043660046103e8565b610113565b005b612711610077565b335f908152600160209081526040808320548151601f860184900484028101840190925284825260ff1615929161016591879187908790819084018382808284375f920191909152506101db92505050565b335f818152602081815260408083208581556001808452918420805460ff19169092179091559190525491925061019c91906101f1565b50335f908152602081905260409020546101b590610203565b5081156101d457600160025f8282546101ce919061045f565b90915550505b5050505050565b5f6101e883836008610212565b90505b92915050565b5f6101fc8383610332565b5090919050565b5f61020e8230610332565b5090565b7f9e7b61f58c47dc699ac88507c4f5bb9f121c03808c5676a8078fe583e46497015460405163196d0b9b60e01b81525f917f9e7b61f58c47dc699ac88507c4f5bb9f121c03808c5676a8078fe583e4649700916001600160a01b039091169063196d0b9b9061028b90889033908990899060040161047e565b6020604051808303815f875af11580156102a7573d5f5f3e3d5ffd5b505050506040513d601f19601f820116820180604052508101906102cb91906104ed565b8154604051630f8e573b60e21b8152600481018390523360248201529193506001600160a01b031690633e395cec906044015f604051808303815f87803b158015610314575f5ffd5b505af1158015610326573d5f5f3e3d5ffd5b50505050509392505050565b5f7f9e7b61f58c47dc699ac88507c4f5bb9f121c03808c5676a8078fe583e46497008054604051635ca4b5b160e11b8152600481018690526001600160a01b03858116602483015292935091169063b9496b62906044015f604051808303815f87803b1580156103a0575f5ffd5b505af11580156103b2573d5f5f3e3d5ffd5b50505050505050565b5f602082840312156103cb575f5ffd5b81356001600160a01b03811681146103e1575f5ffd5b9392505050565b5f5f5f604084860312156103fa575f5ffd5b83359250602084013567ffffffffffffffff811115610417575f5ffd5b8401601f81018613610427575f5ffd5b803567ffffffffffffffff81111561043d575f5ffd5b86602082840101111561044e575f5ffd5b939660209190910195509293505050565b808201808211156101eb57634e487b7160e01b5f52601160045260245ffd5b8481526001600160a01b0384166020820152608060408201525f8351806080840152806020860160a085015e5f60a0828501015260a0601f19601f830116840101915050605483106104de57634e487b7160e01b5f52602160045260245ffd5b82606083015295945050505050565b5f602082840312156104fd575f5ffd5b505191905056fea164736f6c634300081b000a",
  "linkReferences": {},
  "deployedLinkReferences": {}
}